:020000022000DC
:107000000000042025BA030065BA030067BA030034
:1070100069BA03006BBA03006DBA030000000000F8
:10702000000000000000000000000000A1B9030003
:1070300071BA030000000000C1B903008D730200A3
:1070400079BC030077BA030077BA03004D0A030046
:10705000010B030077BA030077BA030077BA030085
:1070600077BA030077BA030077BA030077BA030050
:1070700077BA030077BA030077BA030077BA030040
:1070800077BA0300F1B6030077BA030077BA0300BA
:1070900077BA030077BA03000DAB020077BA03009A
:1070A00077BA030077BA030077BA030077BA030010
:1070B00077BA030077BA0300000000000000000068
:1070C00077BA030077BA030077BA0300F5C5030067
:1070D00077BA030077BA030077BA030065CA0200E3
:1070E00077BA0300ADC1030077BA030000000000C7
:1070F0000000000077BA0300000000006DC6030026
:10710000000000000000000000000000000000007F
:10711000000000000000000000000000000000006F
:10712000000000000000000000000000000000005F
:10713000000000000000000000000000000000004F
:10714000000000000000000000000000000000003F
:10715000000000000000000000000000000000002F
:10716000000000000000000000000000000000001F
:10717000000000000000000000000000000000000F
:1071800000000000000000000000000000000000FF
:1071900000000000000000000000000000000000EF
:1071A00000000000000000000000000000000000DF
:1071B00000000000000000000000000000000000CF
:1071C00000000000000000000000000000000000BF
:1071D00000000000000000000000000000000000AF
:1071E000000000000000000000000000000000009F
:1071F000000000000000000000000000000000008F
:10720000F1EE103A43F08073E1EE103A704700BFA0
:1072100010B5054C237833B9044B13B10448AFF3D0
:1072200000800123237010BD746300200000000063
:107230007488040008B5034B1BB103490348AFF33E
:10724000008008BD000000007863002074880400FE
:10725000154B002B08BF134B9D46A3F5803A002128
:107260008B460F461348144A121A1BF0AFFB0F4B04
:10727000002B00D098470E4B002B00D098470020E1
:10728000002104000D000D48002802D00C48AFF387
:1072900000801BF0DDFA2000290014F01BFC1BF01D
:1072A000B1FA00BF00000800000004200000000048
:1072B00000000000746300203CB8012000000000C2
:1072C00000000000704700BF704700BF10B50146C6
:1072D0000A4803F013FC0021044601F02FFC0022B1
:1072E0001146204601F022FC2046F72101F016FC51
:1072F000BDE81040012012F0B3B800BFE4830120C4
:1073000010B51446630A0A460146044809F010FE07
:10731000002814BF20464FF0FF3010BD2483012009
:1073200010B51446630A0A460146044809F034FEC3
:10733000002814BF20464FF0FF3010BD24830120E9
:1073400010B50C4C0C4809F0D1FD94F82430DB0743
:1073500009D400224FF0FF3384F824202363074B25
:1073600001221A7010BD04F124000BF085FF0028E3
:10737000EFD1F4E7987E01202483012005600020EE
:1073800010B5044614F0E8FB204610BD2DE9F84F77
:10739000404B1C78012C01D0BDE8F88F002107205C
:1073A00015F0DEFE3C4D3D483D4FA82109F088FC1C
:1073B00000213A482E6809F083FC002130703748DC
:1073C0002E6809F07DFC0021707034482E6809F0A9
:1073D00077FC0021B07031482E6809F071FC002163
:1073E000F0702E482E6809F06BFC002130712B489C
:1073F0002D682C4E09F064FC21466871072015F0B9
:10740000AFFE294D29492A483B78B1F900803268FE
:10741000B1F902E0B1F904C02C6801680133DBB2B4
:10742000424474446144032B32602C60016002D0FA
:107430003B70BDE8F88FDFF880E01E4BBEF800C05F
:10744000DFF878A0DFF8788083FB02B9A9EBE2725D
:107450002AF81C2083FB0492A2EBE47483FB0193C3
:107460000CF10102A3EBE173DFF8589028F81C40FF
:1074700091B242F6E0640022A14229F81C303A7031
:1074800032602A60026014BFAEF80010AEF800202F
:1074900082E700BF947E0120086000201C9A012032
:1074A000D47C0120D87C0120DC7C01207083012069
:1074B000E07C012056555555907E012094630020B4
:1074C00054C10020141F01201F4970B51F4E204CCD
:1074D000204D08460AF0AEFB1B493046012209F058
:1074E000C5FE22461C4930461AF00CFA1B4A1C49BC
:1074F0001C481D4E0023D371A2F8443482F8463450
:10750000038083700B808B70184805F06FF9284654
:1075100003F0A2FB2246164928461AF0F3F9154D4E
:1075200030464FF4807103F0EDFF22461249304699
:107530001AF0E8F9284603F045FB224628460F4991
:10754000BDE870401AF0DEB93C830120248301209D
:1075500000600020547D0120C5720200987E012049
:10756000008301204C8301209C7D01207883012031
:10757000317B0200E47C012099B50200097B020006
:1075800010B59B488CB04FF4E13104F09DFE012111
:10759000072015F061FD0121072015F0E1FD012113
:1075A0000E2015F059FD00210E2015F0D9FD91494E
:1075B0009148012209F06EFE904B914A9148009348
:1075C0000021914B05F024F9904B914A8D4800938E
:1075D0000021904B05F036F98F480AF02BF84FF454
:1075E0000073420A0021874805F01CF985480122F2
:1075F000002105F01FF9834805F02EF9874804F0B3
:10760000B7FE002840F0DB80854C7B4920460023F4
:1076100001220BF04DFD002800F0C68081480AF0E1
:10762000C7FB7F4901F244400AF0C6FC002800F085
:10763000C4807D4B1C607D4B7D4A187000247849C6
:10764000ADF80C40234603A88DF80E400AF09AFCD2
:10765000002840F0BE807748012103F00DFA7548FC
:10766000042102F0CDFF00220121724802F0F8FF50
:107670000421704803F0B2F96F496E4801F0C6FD6D
:107680006E496C4801F0C4FD0C220621694801F0E6
:10769000B3FD684803A903F079F9694969480C22E8
:1076A00003F0D6FA0B226849664803F0CDFA654824
:1076B00003F008FB654803F0B3FF654803F0A6FA42
:1076C0006421634803F076FA0621624800F0DAFA92
:1076D000604800F0BFFA5D495E4800F077FA5E4806
:1076E00000F08AFA5B48012100F0FEFAF4225948C2
:1076F000202100F0F5FA57481E2100F0EFFA002192
:10770000544800F051FB042015F048FC0C2015F003
:107710003FFC524809F090FA0021072015F020FDA7
:1077200012214E4809F0CCFA05214C4809F0C8FA5C
:107730000121072015F014FD642011F091FE0021B5
:10774000072015F00DFD1021444809F0B9FAA021D9
:10775000424809F0B5FA0121072015F001FD00218A
:10776000072015F0FDFC17213C4809F0A9FAE0219B
:107770003A4809F0A5FA0121072015F0F1FC384A32
:10778000384B1268B3FBF2F3013BB3F1807F09D2AF
:10779000354A36485360E0240021072380F823400F
:1077A000916013600CB010BD03460246124920469A
:1077B0000BF07EFC00287FF431AF00203BE7174838
:1077C00004F0D8FD0A2011F04BFE144804F0D4FD5B
:1077D0001AE72246164926480AF0DCFB23460A220D
:1077E00003A923480AF0D8FC21480AF0E1FA32E75D
:1077F0005C8C01200858040024830120DC5704001D
:10780000D057040078830120C05704004173020060
:107810000173020021730200288301207C8C012067
:10782000987E0120DC820120449A012048830120B7
:10783000E0570400E4830120CD720200C972020007
:10784000EC570400547D0120FC5704009C7D01206E
:10785000E47C0120248A0120608A01201C9A0120F6
:107860000C6000200090D00310E000E000ED00E08C
:10787000008301202DE9F04F2DED028B954B964AA8
:107880009649DFF8809283B01B880C88A2FB032303
:107890009B0901214FF08042C3EB031389F80010CC
:1078A000B4EBC30FD2F8382400AF37D08C4D6B4601
:1078B000BCB005EB44016846F02208EE103A79604E
:1078C00008EE900A1BF05AF8864B79681B784D3BFE
:1078D00060000D2B15D8DFE803F07A14141414148B
:1078E0001414141414ADB70718EE900AF0221BF00C
:1078F00045F818EE901A7C48F02203F07DFC774B97
:107900001C8804F178039BB242F6E062934200F0D7
:107910009D80724A138018EE103A9D46724C734D4A
:10792000734E204603F03EFA78B1204603F08AFAFF
:10793000C0B20A280FD00D280DD033783070204601
:107940002B7003F02FFA0028EFD10C37BD46BDECA9
:10795000028BBDE8F08F2B78602B02D9203BDBB285
:107960002B70462B0CD0532B06D133785D4A602BFD
:1079700084BF203BDBB2137000232B703370D0E741
:107980004FF00008012089F8008011F069FD33787C
:10799000312B41464FF0070011D015F0E1FB1021CB
:1079A000544809F08DF9A021524809F089F90121C4
:1079B000072015F0D5FB012389F80030DCE715F02E
:1079C000CFFB10214B4809F07BF9A221ECE74A4C90
:1079D0004A4A831E04F1EE061D441C4403EB020BCD
:1079E00018EE903A0644A3F1020A47F6FF783BF9F5
:1079F00002CF34F9021F35F9020F0CFB0CFC01FB1E
:107A000001C100FB00101AF0F9F941EC100B19F05C
:107A10007FFF51EC100B1AF00BFDA0F5FF407F38F3
:107A20004045A8BF4046A6422AF8020FDFD118EE13
:107A3000901A60E730490144F02218EE900A1AF0DB
:107A40009DFF18EE901A56E72C49F4E7234A0023CD
:107A50002020138015F0D2FA40F62B4380B29842D2
:107A600026D8B0F53E6F25D240F6933398422FD8F2
:107A700040F64733984229D840F6FB23984223D852
:107A8000B0F52B6F1ED240F66323984218D840F60B
:107A90001723984212D840F6CB1398420CD8B0F571
:107AA000186F2CBF0A210021154803F083F832E734
:107AB0006421F9E75A21F7E71421F5E71E21F3E7DE
:107AC0002821F1E73221EFE73C21EDE74621EBE702
:107AD0005021E9E7907E012089888888927E0120E4
:107AE000141F0120046000209C7D01209063002071
:107AF000916300201C9A01209463002054C100204F
:107B0000E47C0120947E012010B5074B044640F828
:107B1000183B00F09FFA2046044B40F8083B02F067
:107B20008DFA204610BD00BFF458040050580400E0
:107B300010B5044B044640F8083B02F07FFA20469B
:107B400010BD00BF5058040072DF704773DF7047EC
:107B500077DF704738B5054608460C4602F09CFAB8
:107B6000102803D080280ED0012038BDEB7FA288DA
:107B70001B2B0EDCE9180320E85448704A80EB7F89
:107B80000433EB77F0E7A368002BEDD0E97F0D29F4
:107B900001DD002038BD6A1811206854072151709A
:107BA00058681C689968DB68C2F80E30C2F8060095
:107BB000C2F80240C2F80A10EB7F1233EB770120C3
:107BC00038BD00BF0022C2770270704730B5D1E9DE
:107BD000042485B0CD68074B00936946CDE90224A3
:107BE0000195FFF7B7FF0446684602F027FA2046E2
:107BF00005B030BD68580400F0B589B006462022B3
:107C00001348694602F0D6FEF37FC2181D2A0CDD28
:107C1000C3F11D04E4B2E2181D2A4FF00005D8BFDD
:107C2000082705DD284609B0F0BD044601250927CF
:107C3000F218601CF05469465770901C22461AF0E6
:107C40009DFEF27F023214442846F47709B0F0BD5D
:107C5000E483012010B50446094802F009FFE37FE0
:107C60001C2B01DD002010BDE2180221E1540A2383
:107C700090705370E37F0333E377012010BD00BFA2
:107C8000E4830120C27F1C2A01DD0020704710B46C
:107C900003469C18022098540120A1706070DA7F7E
:107CA0000332DA775DF8044B704700BF10B4084A1E
:107CB000084C094902620022C0E90A41C0E90C22CD
:107CC0005DF8044B0270C27742628263704700BF66
:107CD000FF0101002000F40020001E00C185704754
:107CE000018581854285704780F82210704700BF6A
:107CF000F0B5154605EB8503274A89B0044603EB2A
:107D0000830300200E469B0011680290CDE90460B9
:107D1000ADF8143094F821308DF80830CB07CDE958
:107D20000600039009D41D491D4BC87FE77F988149
:107D300001201C6099609F801060194902AA04F11B
:107D40002000FFF701FF10B1002009B0F0BD94F84A
:107D500020101448019102F08BFE01990246012087
:107D6000FFF7F6FE0028EFD194F820000121FFF77D
:107D7000EDFE0028E8D10B4802F0D8FE628EA68501
:107D800095424FF0010094BF521B921A628684F80C
:107D9000230009B0F0BD00BFCC830120608A012020
:107DA000D0830120E4830120F0B5002361F30F03A9
:107DB0002D4D044661F31F4389B00363FA21284621
:107DC00002F05EFEE68D2949278D0868049706EBD0
:107DD000860303EB830300229B000592ADF8143069
:107DE00094F8213002928DF80830C307CDE90622BD
:107DF00003920BD41E4BE27F95F89B069A8005F206
:107E00007C6501221C609D6098810A60184902AA65
:107E100004F12000FFF798FE10B1002009B0F0BD7A
:107E200094F820101048019102F022FE01990246B8
:107E30000120FFF78DFE0028EFD194F820000121EA
:107E4000FFF784FE0028E8D1074802F06FFE638E3A
:107E5000A7859E424FF0010094BF9B1BDB1A6386EF
:107E600084F8230009B0F0BDE4830120CC83012015
:107E7000D083012030B50B888D88112B85B0044646
:107E800005D0262B33D0102B25D005B030BD436A4A
:107E9000EB40DB07F9D52E4801F08EF90028F4D12C
:107EA000636A94F82310012202FA05F523EA050318
:107EB00063620029E9D194F82230002BE5D0238EAB
:107EC00023486386FA2102F0DBFDE28D218D2046F6
:107ED000FFF70EFFD9E7CB7B012BD6D1426A03FA1D
:107EE00005F515430023456280F82330CDE70B7A72
:107EF000012BCAD1002380F823304FF4FA711448C3
:107F000002F0BEFD238E5BB1658E95B1A36B0BB104
:107F10009847658E618D2A462046FFF7E9FEB4E753
:107F2000A36B03B19847618D00222046FFF7E0FE66
:107F3000ABE7074802F00EFE626B002AA5D0009561
:107F400003AB29462846039514F068FD9DE700BF62
:107F5000E483012075DF704710B44FF010144FF424
:107F600048010022C0E90041C0E902225DF8044B4B
:107F7000704700BF014800F025BF00BFD48A012030
:107F8000F8B500250D4F2E4601E0142D14D0A9B2EE
:107F9000384602F0B3FD013504460028F5D000F064
:107FA0009DFD0028F1D0204600F0A2FD022804BF6C
:107FB0000136F6B2142DEAD13046F8BDE483012033
:107FC00070B58E881B480C4694B0314602F096FD81
:107FD00023881A2B05D01F2B1CD0102B0FD014B0C8
:107FE00070BD054600F07CFD0028F8D0284600F062
:107FF00079FD0028F3D1284600F0FCFDEFE7694643
:1080000000F0E0FD0028EAD06A4631460A4801F057
:1080100075FCE4E754F8080F61686B4603C330460B
:10802000BDF80030ADF802306946FFF793FF14B099
:1080300070BD00BFE483012004840120AADF7047E3
:10804000ABDF7047ACDF7047ADDF7047AEDF704726
:10805000B0DF704710B5044B044640F8043B01F014
:10806000EDFF204610BD00BF2058040010B5054BA1
:10807000044640F8043B01F0E1FF204613F06CFD9C
:10808000204610BD2058040070B57B4B04461B6889
:10809000836196B0043002F00FF894F82E30A06996
:1080A00013F0320208BF84F82F2013F00C0308BF2E
:1080B00084F830300DF10102694601F0B5FF94F803
:1080C0002F209DF8010015070DD09DF8001002F03B
:1080D0000F0301F00F059D424FEA12126DD243EAE1
:1080E000021284F82F2094F8303019070BD003F0D7
:1080F0000F0100F00F058D424FEA131369D241EAD8
:10810000031384F8303094F82E1011F0300340F04F
:1081100096800FAD0F93C5E90133C5E903338DF8A0
:108120003C10AB610021ADF809109DF80A10206ADF
:108130001493012363F342018DF808208DF80A108F
:1081400008B1037873BB94F8263013B104F1260309
:10815000129394F831200023D2070893079358BF55
:10816000E38AADF81C3004F1080004F12F01CDE9D9
:10817000050154BF1846E08AADF82000294604F1F5
:108180003203E569099505AA0020FFF757FF054668
:1081900028B994F8253043BB237D002B64D02846B2
:1081A00016B070BD10901BF0ECFA02AB80B2ADF8C7
:1081B0004400ADF846001393C5E74FEA111101D111
:1081C00091428CD30A462B4643EA021284F82F20B0
:1081D00089E74FEA101001D1984290D3034629460F
:1081E00041EA031384F830308DE7ADF80D009DF8B7
:1081F0000E2094F82F600C90012363F3420242F6A4
:1082000008118DF80E208DF8123004AA0223ADF863
:10821000101003A90D90ADF83030ADF834300A924B
:1082200004F124030B910DF102020AA98DF80C60F0
:108230000E93FFF705FF0028AED00546AFE70F4BC2
:108240008DF805200FAD1B788DF804300220002337
:108250000F938DF80600C5E90133C5E90333AB611F
:108260008DF83C1001AB5DE72146054800F066FF44
:10827000284616B070BD00BFE083012014580400EA
:10828000248801202DE9F0410B888E88502B8AB07C
:108290000C46054609D0512B04D18B79012B19D0FE
:1082A000022B26D00AB0BDE8F081CB88428E9A42DC
:1082B00035D0EA8E9A42F5D16B6D002BF2D095F84D
:1082C0004420648A920700F18A802246294630467B
:1082D0009847E7E7836C002BE4D090F844205207DE
:1082E00001F108076CD43A46294630469847A379ED
:1082F000D6E7A27B042A46D0062A20D0012AD1D173
:10830000EB6C002BCED095F84420170704F108043D
:1083100000F1A5802246294630469847C2E7076DFE
:10832000002FC6D090F84430D90768D404F1120861
:10833000238A424629463046B847E388B9E7EA6BC4
:10834000002AAFD0002202A93046CDE90222CDE9B1
:108350000422ADF80C208DF80830FFF779FE2C6D63
:1083600054B195F84430D80700F19280B5F8423006
:10837000EA6B30462946A047E86B11F0A7F80023C6
:10838000C5E90F338EE7E86B002878D0B5F84010C8
:10839000278A628A07EB020C00234FF0020E8C45FD
:1083A000CDE90633CDE908338DF818E039DD40F228
:1083B0000913ADF81C3006A93046FFF749FE71E7F6
:1083C00003211A46009106AB08213846CDE906651F
:1083D000089714F023FB002889D1AB6C83E70320B6
:1083E00000211A46009006AB0846CDE906650894C0
:1083F00014F014FB00287FF455AF6B6D65E7218AFC
:10840000069604F11208042300933A46404606AB50
:10841000CDE90881079514F001FB00288DD12F6D5F
:1084200086E79DF81EC0ADF81C3004F114014CF035
:1084300001033844ADF822208DF81E300991ADF8C3
:1084400020701AF09BFA238A618AB5F842200B4407
:108450009BB2934238BF1346A5F84230ABE70321E5
:108460001A46009106AB0E212046CDE90665089418
:1084700014F0D4FA00287FF415AFEB6C4AE74FF400
:10848000806011F009F84FF48061C5E90F017FE7C2
:10849000E86BB5F84210069604230093224606AB1B
:1084A000CDE90750099114F0B9FA00287FF464AFC0
:1084B0002C6D5BE72DE9F04F0F464FF6FF718F42B1
:1084C00089B0064615461C4626D0F18A96F82E300D
:1084D0008C4228BF0C46DB0615D40DF1100B8C42E4
:1084E00028BF0C464FF00008718EADF810405A4678
:1084F0004FF6FF700595ADF81280FFF7A3FD4046DB
:1085000009B0BDE8F08F3948394602F0DFFA08B10A
:10851000F18E31B9F18AE0E7344802F0E3FA074618
:10852000D3E7002002230DF1100BADF81200ADF8D7
:1085300010305A460DF10E0338460593FFF784FDBF
:1085400043F2014398424FD000284AD19DF80E8053
:1085500008F00108B8F1000F46D02448394602F06F
:10856000CDFA8246A0B300F0C5FA033883B2002CDE
:10857000C5D0CDF804804FF00009984605E0BDF85D
:108580000E30E41AA4B21D4444B3504600F0E8FA99
:10859000A04503464246594628BF22463846BBB14D
:1085A000ADF80E204FF00102738E8DF812200DF100
:1085B0000E02CDE90625CDF813908DF81790ADF891
:1085C0001030FFF743FD0028D9D0504600F0D2FA12
:1085D0004FF00008404609B0BDE8F08FDDF8048098
:1085E0008DE700F00108B5E7F18A78E7E483012020
:1085F00010B5154B044640F8043B01F027FD134A23
:108600000023127884F8443014200321A384C4F892
:108610002630C4F82A3084F82E30E082C4E90F33C3
:10862000C4E91233C4E9143384F831102375A3610B
:108630002362E36163866363238784F82F2084F8D1
:108640003020204610BD00BF2058040014580400FC
:1086500070B44E68164A86600260D1E90262154B1A
:10866000154D1C7845600261142500220321C0E9E4
:108670000F22C0E91222C0E91422C660C58280F828
:10868000311080F844200275826102628284C0F851
:108690002620C0F82A2080F82E20C261428642633C
:1086A000028780F82F4080F8304070BC704700BFD0
:1086B00020580400145804006858040010B4D1E98C
:1086C0000142CB680361C0E902425DF8044B704788
:1086D0008069704701230375704700BF80F82E1032
:1086E000704700BFC182704741B190F83130C182FC
:1086F000002262F3000380F83130704790F8313087
:10870000012262F3000380F83130704780F82F10A7
:1087100080F83020704700BF90F84430016562F364
:10872000000380F8443070470162704751F8322FDF
:10873000026049684160704730B5C48A83B0944292
:1087400023460D4628BF1346418E019500246A46F4
:108750004FF6FF70ADF80030ADF80240FFF772FC45
:1087600018B9BDF8000003B030BD204603B030BDDD
:1087700030B5C38A85B00A46012B28BF0123418E3C
:108780008DF8072000240DF1070502AA4FF6FF70AF
:10879000ADF80830ADF80A400395FFF753FC18B95F
:1087A000BDF8080005B030BD204605B030BD00BFA3
:1087B00090F82E3013F0100301D11846704730B5F1
:1087C000044685B011480D4602F080F910B1E18EE3
:1087D00011B9084605B030BD0DF106032846002446
:1087E000022502AA0393ADF80A40ADF80850FFF73E
:1087F0002BFC43F20143984206D008B99DF80600CD
:1088000000F0010005B030BD2046E3E7E48301201D
:1088100010B490F82E4014F0100403D05DF8044B0F
:10882000FFF748BE20465DF8044B7047A1DF704754
:10883000A3DF7047A4DF704700238383704700BF26
:10884000006A00F0E3B800BF808B70472DE9F0416B
:108850000B88CE88382B86B00C46054606D0392BBF
:1088600066D0362B43D006B0BDE8F08100F1240776
:10887000002E36D10A8A3846314602F095FF94F828
:108880000C80B8F1010F2CD0B8F1040FEBD1286A9D
:1088900000F0BCF801465C4802F030F900F02AF91B
:1088A0002A8E053883B2934228BF1346002B00F06E
:1088B0009A80218AE289286AAC8B8DF80D600A447F
:1088C000E96A05918DF80C80ADF81230ADF81020F2
:1088D000ADF80E4000F09AF803A9FFF7A9FF0028B1
:1088E000C1D0384602F078FF06B0BDE8F081006ADA
:1088F00000F08CF80146444802F000F900F0FAF864
:1089000007466EBB05F12406E289304604F11001EA
:1089100002F04AFF2B8E2BB1F81EE38980B201389A
:10892000834255DA304602F057FF06B0BDE8F081C9
:108930000B7B012B1AD0022B95D1836B002B92D08D
:1089400090F83C208F8892071FD401F11006E2892D
:1089500031462846984761893846FFF76BFF82E722
:1089600005F12407384602F037FFBDE7436B002BC3
:108970003FF479AF90F83C20D10717D404F11006EA
:10898000E2893146284698476DE7C989039004F18A
:10899000100603201A46009003AB3046CDE904616F
:1089A00014F03CF80028D6D1AB6BD0E7E1890390F6
:1089B00004F1100603201A46009003AB3046CDE9BF
:1089C000046114F02BF800287FF44DAF6B6BD7E7F0
:1089D000286A00F01BF86A8EA98B92B2FFF726FF77
:1089E00000289FD13FE7AA8B286AADF80E2040F2FD
:1089F0000511ADF80C10CDE9043300F007F803A918
:108A0000FFF716FF6DE700BFE48301208088704701
:108A10008FDF704790DF7047A5DF7047B1DF704789
:108A2000B5DF704710B5074B03600446806A11F04C
:108A3000CDFBE06A11F0CAFB206B08B111F0C6FB58
:108A4000204610BD3858040010B5094B0360044699
:108A5000806A11F0BBFBE06A11F0B8FB206B08B133
:108A600011F0B4FB204613F077F8204610BD00BF8C
:108A70003858040070B504460D4692E80300A580FE
:108A80000E0CA061A183144DA67717201B215689D7
:108A90002560E0809589D089E181D17965810122C5
:108AA00022752274A08161741846194626819DF8AA
:108AB000105010F0B5FD2946A062284610F0B0FD18
:108AC0004FF4885100234FF6FF72E182E062628228
:108AD00023636375204670BD38580400007D7047DD
:108AE000407D7047C07D113818BF0120704700BF1E
:108AF000407C7047C0887047008970474B7D10B438
:108B00004BB11F310C688A888B79046082805DF8D4
:108B1000044B837170471831F4E700BF08B58088B3
:108B2000FFF77AFFB0FA80F0400908BD08B58088E9
:108B3000FFF770FFB0FA80F0400908BD00B583B0C0
:108B40000B468DF8041080888DF8053001A9FFF7D9
:108B50005FFFB0FA80F0400903B05DF804FB00BF8E
:108B600008B56621806A11F0B5F9003818BF0120F8
:108B700008BD00BF08B500231A461946806A10F0E8
:108B800081FD003818BF012008BD00BF818800F1B9
:108B90001F02407C02F066BE38B50A4605460C4608
:108BA0008188407C02F04AFE2146012051F8483F6E
:108BB000C5F81F308B888A7985F82520A5F82330E1
:108BC000687538BD38B50A4604460D4600F11801EF
:108BD000407C02F07DFE607550B1294651F8483F57
:108BE000C4F81F308B888A7984F82520A4F82330B4
:108BF00038BD00BF10B5447D24B100F11F01407C99
:108C000002F044FE204610BD70B50B88113B82B0C7
:108C10000C460546462B2BD8DFE803F0383B2A2AC2
:108C20002A2A2A2A2A422A2A2A2A2A2A50585E64CA
:108C30002A2A2A2A2A2A2A2A2A2A2A2A2A2A2A2A94
:108C40002A2A2A2A2A672A942A2A2A2A2A2A2A2ADD
:108C50002A2A2A2A2A2A2A2A2A2A2A2A2A246A2A3A
:108C6000752C84000023A8881A461946FFF7D6FE03
:108C700002B070BD8B79002BFAD1006BAB75002868
:108C8000F6D01A46194610F0FDFCF1E700230375F3
:108C9000EEE74B8903818B894381CB898381E7E7A9
:108CA0000B7AC375112BE3D0818800F11F02407C41
:108CB00002F0C6FE03460028DAD1D4E7002301A95A
:108CC0008088ADF80430FFF7A3FED1E70B7A002BC4
:108CD000CED14B7A0374CBE7002211468088FFF790
:108CE00099FEC5E70B89C381C2E74B89C380BFE703
:108CF000006B0123AB750028BAD000231A46194631
:108D000010F0C0FCB4E7417C164801F0EFFEE388A8
:108D10000146994228BF194689B2A888E980FFF721
:108D20007FFEA5E78B79002BA2D0002600231A46F0
:108D30001946A86A10F0A6FC0136A279F3B29A424D
:108D4000F4D895E78B7A002B92D0002600231A46A0
:108D50001946E86A10F096FC0136A27AF3B29A42FC
:108D6000F4D885E7E483012070B58AB086880B4685
:108D700006A84FF42851144605934FF6FF7501F0ED
:108D80006FF90120CDE90105059B0094314606AA43
:108D9000044800F06FF8044606A801F04FF9204699
:108DA0000AB070BD2488012010B50446043002F0DA
:108DB00097FC034B236000232375204610BD00BFA2
:108DC0000100FFFF017D01B1704710B5044604307A
:108DD00002F090FC0123237510BD00BF007D704799
:108DE0000B88322B10B504D0332B17D0302B08D082
:108DF00010BDCB88DBB1041D2046BDE8104002F059
:108E0000EBBCCB88041D002BF6D14B89002BF3D093
:108E10000A3120460A2202F0C7FCEDE7CB88002B7E
:108E2000E9D14A89002AE6D002EB420204E04A89ED
:108E3000002AE0D002EB82025200041D023292B2FC
:108E40000A31204602F0B0FCD6E700BFA0DF704731
:108E500010B5044600F5F87002F042FC2046F822F6
:108E6000002119F0B3FDF822A018002119F0AEFD81
:108E7000204610BD2DE9F04782B00546BDF82C60B4
:108E8000BDF830402048ADF80460BDF828A0ADF82A
:108E90000640904699460F4601F030FE05F5F875FC
:108EA000064603E0FFF728FE10F0DAFA284602F043
:108EB00079FC04463046002CF4D10121284602F00A
:108EC00019FC52464946284602F030FC08F10401DC
:108ED000384601AAFFF7BAFF30B1284602F014FC69
:108EE000204602B0BDE8F0874FF4FA71284602F040
:108EF00023FC20EAE074284602F006FCA4B22046D7
:108F000002B0BDE8F08700BFE48301202DE9F04FF7
:108F10008F880D8885B0884604463946864801F01A
:108F2000EDFDA5F11003012B814640F2908094F8ED
:108F300054203AB3002633461633502D54F823A05C
:108F400069D0512D1AD198F80630B8F808B0022B24
:108F500053D0BBF1000F11D051466846FFF7E6FB36
:108F6000BDF800305B4559D0514602A8FFF7DEFB43
:108F7000BDF80C305B4551D094F854200136F3B263
:108F80009342D9D394F84C31002B00F0D18004F5F2
:108F9000A679002604E094F84C310136B34220DD76
:108FA00059F8040FFFF74CFCB842F4D1382D03D028
:108FB000392D01D0362DEED1B8F80AA0BAF1000F44
:108FC000E9D0D9F800B05846FFF73EFC5045E2D151
:108FD00058464146FFF73AFC94F84C310136B3420B
:108FE000DEDC112D55D0352D04D1B8F80A30002B18
:108FF00040F08F8005B0BDE8F08F98F80E30062B5A
:10900000A7D1DAF800305046DB6841469847484619
:10901000FFF768FDB0E7B8F806B09AE7DAF8003075
:109020005046DB68414698474846FFF75BFD0028FD
:10903000A2D0502DA0D1514602A8FFF777FBBDF872
:109040000C305B4598D14846FFF7A0FD94E72378A4
:10905000002B3FF46CAF0026112D33460CD004EBEF
:1090600083033946586803685B689847013622785D
:10907000F3B29A42F3D85AE704EB830339465868AF
:1090800003681B68984701362278F3B29A42F3D8F6
:109090004DE7D3B10026334605E094F84C21013664
:1090A000F3B29A4211D904EB8305D5F85001FFF7CA
:1090B000C7FBB842F1D1D5F85001FFF7BDFB01362F
:1090C00094F84C21F3B29A42EDD894F8F820002A93
:1090D00090D000252B4604EB8303D3F8FC00838853
:1090E000BB420AD00135EBB2934283D204EB830337
:1090F000D3F8FC008388BB42F4D103681B6898470F
:10910000013594F8F820EBB29342E4D305B0BDE802
:10911000F08F04F5F874B8F80C20204608F110011F
:1091200002F042FB204605B0BDE8F04F02F054BB10
:10913000112D7FF458AFC8E7E483012090F8542044
:10914000272A0CD810B4034602F11604013280F825
:10915000542043F8241001205DF8044B7047002090
:10916000704700BF0378132B06D800EB830201334E
:1091700003700120516070470020704778DF70470E
:109180007ADF7047054A034692E80300002283E82D
:109190000300C3E902221846704700BF405804008C
:1091A00008B5FFF7EDFF08B1002008BDFFF7E6FFA7
:1091B000B0FA80F0400908BDF8B500250D4F2E46E5
:1091C00001E0142D14D0A9B2384601F097FC013506
:1091D00004460028F5D0FFF781FC0028F1D0204696
:1091E000FFF786FC012804BF0136F6B2142DEAD140
:1091F0003046F8BDE483012008B501804280FFF7C6
:10920000BFFFB0FA80F0400908BD00BF8160704721
:10921000C1607047704700BF8ADF704730B40D4CA3
:10922000C4621F25002250248584A025C0E9112294
:10923000C0E90F22A0F84650A0F84840006230BCB8
:109240008262028680F838204263C264A0F850200F
:10925000704700BF000180002DE9F04F10468DB02F
:1092600016460C4600F018FFC5B2102D4FD0B66858
:1092700007220623A16994F81C9001918DF80D2016
:109280008DF80C30ED080DF10C080DF10E0A0027D9
:10929000B9F1010F0A97CDE90477CDE90677CDE959
:1092A0000877CDF82B700ED998F8000001994B463D
:1092B0004A7882420FD00A78D4432344013213F013
:1092C000FF031144F4D108F10108C245E0D10020A8
:1092D0000DB0BDE8F08F11F8024B013CE4B222461C
:1092E00004A819F04BFB0DF1100B1CB9EBE714F0BF
:1092F000FF04E8D058462A46314619F031FB641B7A
:10930000AB440028F3D101200DB0BDE8F08F043646
:1093100003220223AEE700BF2DE9F0430B888E88BD
:10932000103B87B00D4604460D2B2CD8DFE803F028
:1093300077072B2B2B2B2B2B2B2B2B842B2E836A62
:10934000F340DB071FD55648FEF71AFED8B9A36ACB
:1093500094F82C20012505FA06F623EA0606A662F3
:109360008AB994F82D3073B11F232462A38404F1C9
:10937000200104F14400FFF74FFF20B9494801F0F4
:10938000D5FB84F82C5007B0BDE8F08390F92E206F
:1093900091F91B309A423ADC90F8383001F1080814
:1093A0000BB3DFF80491002602E0D6B2B34218D91D
:1093B000636BCDF8089003EB061302AA596803917A
:1093C000D3E902734146204605930497FFF744FF13
:1093D000074602A800F032FE94F83830721C002FC5
:1093E000E3D09E4213D094F82F30002B49D095F84B
:1093F0002430012B0BD9296A4A78FF2A30D00A7809
:10940000D0430344013213F0FF031144F4D104F1BB
:1094100020010020FFF700FF07B0BDE8F083CB7B01
:10942000022BB0D1836A012202FA06F633430022EE
:10943000836280F82C20A6E70B7A012BA3D10025AC
:1094400080F82C50174801F085FB226C002A9AD036
:10945000009502AB29462846029513F0DFFA92E701
:1094600011F8025B6A1ED2B2022A28BF022202A8A9
:1094700019F084FA012DCAD0228EBDF808309A4224
:10948000C5D1E26B002A3FF47EAF01230093404632
:1094900002AB2421CDF8088013F0C0FA73E700BFB7
:1094A000F4830120E48301206858040046DF7047FC
:1094B0007FDF704780DF704781DF704785DF70474F
:1094C00086DF704738B51C460D46034611462846D0
:1094D0002246984734B1014600222846BDE838406C
:1094E000FFF7E8BF38BD00BF10B50C4682B0034699
:1094F0006946204698476A4620460121FFF7DAFF71
:1095000002B010BD10B50446083002F0C3FC074B92
:109510002360032200232271C4F81034C4F81434E9
:10952000C4F81834C4F81C34204610BD35071003A5
:1095300030B50446ADF55F7D00F108058F4802F0B7
:109540003DFC0821284602F0A9FC684602F0B0FC68
:109550006846082102F0B0FC6946284602F04EFC3D
:1095600004F54F714122684602F0B4FC684602F0EF
:10957000ADFC94F85C0394F85B2394F83D1394F8E5
:109580003E3384F83D0384F83E2394F85A0394F85C
:10959000592394F83F5384F85C1384F85B3394F8B0
:1095A000401394F8413384F83F0384F8402394F83F
:1095B000580394F8572384F85A5384F8591394F8AD
:1095C000425394F8431384F8410384F8583394F8D1
:1095D000560394F8443384F8422394F8552384F8CE
:1095E000575384F8430384F8442384F8553384F8AC
:1095F000561394F8451394F8540394F8532394F8AD
:10960000463384F8450384F8462394F8520394F8CB
:10961000512394F8475384F8541384F8533394F83F
:10962000481394F8493384F8470384F8482394F89E
:10963000500394F84F2384F8525384F8511394F84C
:109640004A5394F84B1384F8490384F8503394F840
:109650004E0394F84C3384F84A2394F84D2384F84D
:109660004F5384F84B0384F84C2384F84D3384F82B
:109670004E1394F85D1394F87C0394F87B2394F8CC
:109680005E3384F85D0384F85E2394F87A0394F8DB
:10969000792394F85F5384F87C1384F87B3394F82F
:1096A000601394F8613384F85F0384F8602394F8BE
:1096B000780394F8772384F87A5384F8791394F82C
:1096C000625394F8631384F8610384F8783394F850
:1096D000760394F8643384F8622394F8752384F84D
:1096E000775384F8630384F8642384F8753384F82B
:1096F000761394F8651394F8740394F8732394F82C
:10970000663384F8650384F8662394F8720394F84A
:10971000712394F8675384F8741384F8733394F8BE
:10972000681394F8693384F8670384F8682394F81D
:10973000700394F86F2384F8725384F8711394F8CB
:109740006A5394F86B1384F8690384F8703394F8BF
:109750006E0394F86C3384F86A2394F86D2384F8CC
:109760006B03012084F86F5384F86E1384F86C2324
:1097700084F86D330DF55F7D30BD00BF708B012027
:109780000B7803F0FE03042B01D00020704770B566
:1097900015468CB00C462022002104A819F016F9B9
:1097A00028686968AA68EB686D460FC59DF80010C7
:1097B0009DF80F209DF801609DF80E509DF8020065
:1097C0008DF80F1023469DF80D108DF800209DF8A0
:1097D00003208DF80E608DF801509DF80C609DF807
:1097E00004508DF80D008DF802109DF80B009DF8C7
:1097F00005108DF80C209DF80A208DF803608DF877
:109800000B508DF804008DF805208DF80A109DF896
:10981000061033F8042FADF810209B789DF809202E
:109820009DF81D009DF810609DF81F508DF80910DF
:109830008DF806209DF811109DF81E208DF81D3022
:109840009DF807308DF812008DF81F609DF8080014
:109850009DF813608DF810508DF81E109DF81C5067
:109860009DF814108DF811208DF808309DF81B20FC
:109870009DF81A308DF807008DF81C608DF8135094
:109880009DF815608DF81B108DF8142068468DF832
:1098900015309DF819109DF817209DF818309DF887
:1098A00016508DF818208DF816108DF817308DF899
:1098B0001A608DF81950FFF7F9FD62789DF82F3086
:1098C0009DF82E009DF82D108DF821009A428DF8FC
:1098D000221004F1010404D0012080F001000CB03A
:1098E00070BD6278C3B29A4204F10104F4D1627887
:1098F000CBB29A42F0D10020EFE700BF08B5137C4D
:10990000DB0758BF1C32084602F11201FFF7D6FDF3
:10991000B0FA80F0400908BDF0B58F880E46ADF56D
:109920006B7D04463946464801F0E8F83388133B1E
:109930000546072B2FD8DFE813F03E005F006D00CF
:109940002E002803870008003100337AB3B9737BF7
:109950009B070ED4294602A8FFF7D0F80299BDF85C
:109960000C209DF80E3084F80C34C4F80614A4F8CA
:109970000A24284604F2BE31FFF70EF9D4F8182461
:109980004AB1307A0D9002230021009308460CABB7
:109990000C9713F043F80DF56B7DF0BDD4F81C2443
:1099A000002AF8D001230021009308460CAB0C9745
:1099B00013F034F8EFE704F2BE3304F2DA320C931A
:1099C00004F2F63300251092119304F23D3204F2B2
:1099D0007E330F921393CDE90D551295FFF788F85A
:1099E00001280CBF22462A460CAB29463846FFF711
:1099F0005FFD0DF56B7DF0BD0CA9FFF7E3F80346A5
:109A0000002800F0D2820CA9384600231AAAFFF7DA
:109A100057FDC0E7D4F810140029BCD0B37B094A25
:109A200003F001030F930423CDE90C1706F108009E
:109A3000009306210CAB0E9012F0F0FFABE700BFD5
:109A4000E4830120C594020094F87E3394F89D23AA
:109A500094F87FC394F89C6394F8805394F89B0324
:109A600084F89D33042194F89A3384F87D1384F8A4
:109A70007E2394F8811394F8822384F89CC384F89D
:109A80007F6394F899C394F8836384F89B5384F8B4
:109A9000800394F8985394F8840384F89A1384F814
:109AA000813394F8971394F8853384F8992394F8C4
:109AB000962384F882C384F8986384F8835384F8E7
:109AC000970384F8841384F8852384F8963394F8F4
:109AD000862394F8953394F887C394F8946394F8A4
:109AE000885394F8930394F8891384F8952384F8A1
:109AF000863394F8922394F88A3384F894C384F8D4
:109B0000876394F891C394F88B6384F8935384F833
:109B1000880394F8905394F88C0384F8921384F893
:109B2000892394F88F1394F88D2384F8913394F853
:109B30008E3384F88AC384F8906384F88B5384F856
:109B40008F0384F88C1384F88D3384F88E2394F873
:109B50009E2394F8BD3394F89FC394F8BC6394F8A3
:109B6000A05394F8BB0394F8A11384F8BD2384F8A0
:109B70009E3394F8BA2394F8A23384F8BCC384F8D3
:109B80009F6394F8B9C394F8A36384F8BB5384F833
:109B9000A00394F8B85394F8A40384F8BA1384F893
:109BA000A12394F8B71394F8A52384F8B93394F853
:109BB000B63384F8A2C384F8B86384F8A35384F856
:109BC000A41384F8B62384F8A53384F8B70394F873
:109BD000A60394F8B51394F8A72394F8B43394F833
:109BE000A86394F8B35384F8B50384F8A61394F8E3
:109BF000A90394F8B21384F8B42384F8A73394F833
:109C0000AA2394F8B13384F8B36384F8A85394F882
:109C1000AB6394F8B05384F8B20384F8A91394F8B2
:109C2000AC0394F8AF1384F8B12384F8AA3394F802
:109C3000AD2394F8AE3384F8AD3384F8AE2384F8C2
:109C4000B06384F8AB5384F8AF0384F8AC130CA86A
:109C500002F02EF90CA8082102F02EF904F27D3151
:109C60000CA8412202F048F90CA904AA202304F10F
:109C7000080002F0F1F80CA802F028F99DF8101085
:109C80009DF82F009DF811309DF82E209DF8126050
:109C90009DF82D508DF810008DF82F109DF81300B1
:109CA0009DF82C108DF811208DF82E309DF8142081
:109CB0009DF82B308DF812508DF82D609DF81550C1
:109CC0009DF82A608DF813108DF82C009DF8161061
:109CD0009DF829008DF814308DF82B209DF8173051
:109CE0009DF828208DF815608DF82A508DF8160003
:109CF0008DF817208DF828308DF829109DF8181050
:109D00009DF827009DF819309DF826209DF81A60CF
:109D10009DF825508DF818008DF827109DF81B0030
:109D20009DF824108DF819208DF826309DF81C2000
:109D30009DF823308DF81A508DF825609DF81D5040
:109D40009DF822608DF81B108DF824009DF81E10E0
:109D50009DF821008DF81C308DF823209DF81F30D0
:109D60009DF820208DF81D608DF822508DF821106F
:109D70008DF81F208DF820308DF81E0094F87E039A
:109D800094F89D1394F87F2394F89C3394F880639F
:109D900094F89B5384F89D0384F87E1394F8810310
:109DA00094F89A1384F89C2384F87F3394F88223E0
:109DB00094F8993384F89B6384F8805394F8836310
:109DC00094F8985384F89A0384F8811394F88403E0
:109DD00094F8971384F8992384F8823394F88523B0
:109DE00094F8963384F8986384F8835384F8841342
:109DF00084F8962384F8853384F8970394F88603CF
:109E000094F8951394F8872394F8943394F888631E
:109E100094F8935384F8950384F8861394F889038F
:109E200094F8921384F8942384F8873394F88A235F
:109E300094F8913384F8936384F8885394F88B638F
:109E400094F8905384F8920384F8891394F88C035F
:109E500094F88F1384F8912384F88A3394F88D232F
:109E600094F88E3384F8906384F88B5384F88C13C1
:109E700084F88E2384F88D3384F88F0394F89E033E
:109E800094F8BD1394F89F2394F8BC3394F8A0631E
:109E900094F8BB5384F8BD0384F89E1394F8A1038F
:109EA00094F8BA1384F8BC2384F89F3394F8A2235F
:109EB00094F8B93384F8BB6384F8A05394F8A3638F
:109EC00094F8B85384F8BA0384F8A11394F8A4035F
:109ED00094F8B71384F8B92384F8A23394F8A5232F
:109EE00094F8B63384F8B86384F8B70384F8A413FD
:109EF00084F8B62384F8A53384F8A35394F8A653C2
:109F000094F8A72394F8B43394F8B50394F8A813FD
:109F100094F8B36384F8B55384F8B42394F8A95340
:109F200094F8AA2384F8A73394F8B13394F8B0C313
:109F300084F8A60384F8B31394F8B20394F8AB132F
:109F400084F8A86384F8B25394F8AC6394F8AF53E0
:109F500084F8B12384F8AA3394F8AD2394F8AE338F
:109F600084F8A90384F8B013384604A984F8ABC375
:109F700084F8AF6384F8AC5384F8AE2384F8AD332F
:109F8000FFF79AFA0DF56B7DF0BDD4F81424002A82
:109F90003FF401AD0223002100930C920CAB064A62
:109FA0000D97084612F03AFDF5E438461A46194670
:109FB000FFF786FAEFE400BFE9940200A8DF7047DC
:109FC000704700BF30B5044683B0083000F074F825
:109FD00004F10C010DF106020120FFF7EFFF054629
:109FE00028B9044B04481C602146FFF7BBF82846FB
:109FF00003B030BDE08301202488012030B44C68D8
:10A00000C460D1E90241054A054D0260054A8560F8
:10A01000C0E90441426030BC704700BF50580400A2
:10A02000685804000000111183790B70C379137014
:10A03000704700BF62DF704763DF7047704700BF43
:10A0400010B5044611F088FD204610BD034A026099
:10A050000022C0E9022282718280704768580400A1
:10A0600010B4054C8180002201210460C0E9022265
:10A070005DF8044B8171704768580400002210B4E9
:10A08000044C046081605DF8044B82718280C26080
:10A09000704700BF685804008379012B0AD082689A
:10A0A00032B9C26822B9012B8CBF802000207047D2
:10A0B00080207047102070472DE9F047857982B0E5
:10A0C000002D47D1C7680646002F47D010200FF05B
:10A0D000E3F98246384619F054FB441E30B3DFF8EA
:10A0E0008490A84604E00134023C1FD4102D1DD0FA
:10A0F00017F804C0BCF12D0F07EB0402F3D099F858
:10A100000030ADF805808DF8043012F8013C8DF870
:10A1100004301022002101A88DF805C019F0ECFBD5
:10A120006B1C023C0AF80500DDB2DFD5C6F808A0BA
:10A13000BAF1000F0ED0B11D5046FFF77BFFB1689A
:10A14000321D1020FFF778FFB0FA80F0400902B00E
:10A15000BDE8F087012002B0BDE8F087D0F808A084
:10A16000E6E700BF5C5804004DDF70474EDF7047E4
:10A170004FDF704750DF70474BDF704710DF70478D
:10A180007CDF70477DDF704760DF704769DF7047B5
:10A1900061DF704766DF704767DF7047704700BF59
:10A1A0000C2012F0FBBF00BF30B5224C224D83B013
:10A1B000D4F828074FF0FF310FF08CFE0028F7D0BD
:10A1C000C5B101A8FFF7D8FF0528F1D00028F8D1C4
:10A1D000019B032B1BD8012BF3D918460FF054F821
:10A1E000EFE70A2B04D0092B21D00B2B02D1012041
:10A1F00006F0AEF901A8FFF7BFFF0528D8D0002868
:10A20000F8D1019BA3F10902022AF3D8E9E7A3F1EF
:10A210000902022AD5D80A2B04D0092B05D00B2B12
:10A22000CFD1012006F094F9CBE70220FAE7022013
:10A23000DEE700BFE4830120899203002DE9F04F9F
:10A240002DED028B4FF4FA7089B00FF025F9B24E64
:10A2500000F1080308EE103A054606F5F06706F52A
:10A26000C86AD6F824074FF0FF310FF033FE0028FC
:10A27000F7D04FF4FA730DF116012846ADF81630F9
:10A28000FFF786FF10B10528F3D1EAE7B5F804908F
:10A29000B9F1130F00F2398106EB8903D3F8344783
:10A2A0003CB129462046FEF7AFFC9C482946FFF703
:10A2B00033FB2B88013B1B2B5AD8DFE813F0160128
:10A2C00059005900590059005900590059005900C6
:10A2D000590059005900590059005900B4001C0098
:10A2E00059005900590059005900590059005900A6
:10A2F00059005900A200DFF838824FF0000B58F8DF
:10A30000040F30B1FEF7EAFB18B10BF1010B5FFA55
:10A310008BFBB845F3D1BBF1000F06D196F830376F
:10A320001BB159460C2012F01BFF2046FEF7E0FB44
:10A33000012800F0EC80F26962B10223002195F857
:10A3400008C00093084606ABCDF81890CDF81CC0A5
:10A3500012F064FB09F5E67806EB8803586810B143
:10A3600003685B68984706EB88080023C8F8043048
:10A3700029465046FDF77EFD69482946FEF7CCFF89
:10A38000B6F832374B452B8800F0B480102B1ED026
:10A390002CB32046FEF7ACFB012803D15E482946CA
:10A3A000FEF738FF2046FEF7A3FB02281BD05D48CE
:10A3B000FEF714FD00BB5C482946FEF7A7FDD6F862
:10A3C0008837002B3FF455AF2846984751E7EB7B81
:10A3D000012BDDD1AB88A6F83237002CD9D14E48FD
:10A3E0002946FEF717FF51482946FDF7E9FD4D487C
:10A3F000FEF7F4FC0028DED04A482946FEF7F0FCC0
:10A40000D9E7D6F88427002AB2D00223002195F993
:10A4100008C00093084606ABCDF81890CDF81CC0D4
:10A4200012F0FCFAA4E74FF00008D6F82C07CDF89C
:10A4300000804346424603213D4C11F0C5F854F8D4
:10A44000040F30B1FEF74AFB18B108F101085FFABA
:10A4500088F8BC42F3D196F830376BB1B8F10001FF
:10A4600018BF01210C2012F07BFE96F830371BB18B
:10A4700001210C2012F074FE09F5E67806EB880441
:10A48000606820B103685B68984700236360EB7BDA
:10A49000012B0BBF96F8123796F8183796F813472A
:10A4A00096F819470393342011F054FB06EB880803
:10A4B000039B009418EE102A04464946FEF7DAFA88
:10A4C0002046C8F80440FEF713FB012832D0B269D9
:10A4D000002A3FF44DAF012300210093084606AB4C
:10A4E000CDF8189012F09AFA42E700214846FFF79B
:10A4F00051FE3DE7102B3FF46AAF112B7FF448AFBC
:10A500004FF6FF73A6F8323742E70446D1E6F26809
:10A51000002A7FF412AF1DE7E483012004840120A8
:10A52000808A0120D48A012024880120F48301201C
:10A53000148B0120B268002A3FF41AAF002100906A
:10A5400006AB0846CDF8189012F068FA10E700BF85
:10A5500038B50446FEF716FE04F11000FDF7FCFCCA
:10A5600004F12000FEF7CEFF04F58860FEF770FCD2
:10A5700004F5C860FDF79AFB04F27C60FDF722FB4E
:10A5800004F29C60FEF74AFE04F5DE60FEF70CFC68
:10A590004FF480530025C4F8083716481649174A67
:10A5A000C4F80C0740F20113C4F81017C4F81427BC
:10A5B000A4F81837A4F81A5704F234702946502228
:10A5C00018F004FA01224FF6FF73A4F81C5784F820
:10A5D0001E57C4F82457C4F82857C4F82C57C4F899
:10A5E0008857C4F8845784F83027A4F832372046B7
:10A5F00038BD00BF010A1700030001011700030066
:10A6000004290BD8DFE801F00B130B1B0300104BE0
:10A61000C0F80E3740F20313A0F8123770470D4B05
:10A62000C0F80E3740F20113A0F8123770470A4BFA
:10A63000C0F80E3740F20113A0F812377047074BED
:10A64000C0F80E374FF48173A0F81237704700BF7F
:10A65000F7006400170003001700020080000600E6
:10A66000F0B5BF4E80F81C178DB080F81D2704464A
:10A6700011F0EEFA11F0F4FA11F0B2FA3369B949B7
:10A68000039303A8FFF77AFD18B1002528460DB003
:10A69000F0BD0120FFF76AFD0120FFF765FD0120F5
:10A6A000FFF766FD09A8FFF765FD099B9B0705D528
:10A6B000AD4BD3F80435002B00F0FE800023AB4AED
:10A6C00094F80D57049209A90120CDE909330B93A1
:10A6D0008DF82450FFF75AFD0028D6D194F81D3785
:10A6E0000B90CDE90900181E18BF012094F81C57E3
:10A6F0008DF82700049A8DF8263009A940208DF89E
:10A700002550FFF743FD0028BFD194F80C1709909E
:10A71000034661F30003CDE90A00049A8DF8243062
:10A7200009A9A020FFF732FD0028AED1D4F80837E0
:10A730000A900B90049A099309A9A120FFF726FD1E
:10A740000028A2D194F81C37002B40F0B98094F86F
:10A750001D37002B48D00023B4F81477049A0993CE
:10A76000022509A92320CDE90A338DF82450ADF83C
:10A770002670FFF70BFD002887D1CDE9090094F87A
:10A780001D77B4F816370B90049A8DF8245009A958
:10A7900020208DF82670ADF82830FFF7F7FC002850
:10A7A0007FF473AF0990CDE90A0094F81837049A42
:10A7B0008DF8245009A922208DF82630FFF7E6FCF9
:10A7C00000287FF462AFCDE9090094F819370B90A7
:10A7D000049A8DF8245009A921208DF82630FFF71E
:10A7E000D5FC00287FF451AF04A8FFF7CDFC00286A
:10A7F0007FF44BAFCDE9070040F0010307A9022029
:10A800008DF81C30FFF7C8FC00287FF43EAF2046CF
:10A81000FEF7C6FC054600283FF437AF04F12000E0
:10A82000FEF786FE337D52498DF808300D2202A8CE
:10A83000FFF7A6FC00287FF428AF94F81D37002B03
:10A8400040F088800322002101200EF0A7FEC4F80A
:10A85000240700283FF419AF05AB0326CDE90063B8
:10A860004449454800234FF4A0620FF04DFE3246A4
:10A87000002101200EF092FEC4F8280700283FF4C2
:10A8800004AF06ABCDE900633C493D480023C82234
:10A890000FF03AFE3B4B4FF480021A603A4B0093A4
:10A8A0000023184601224FF4807110F037FEC4F8DF
:10A8B0002C0700F09DFFE9E6022005F049FEFDE6C9
:10A8C0000990CDE90A00B4F80E37049AADF82630A5
:10A8D000012509A923208DF82450FFF757FC0028F3
:10A8E0007FF4D3AECDE9090094F81C77B4F81037A3
:10A8F0000B90049A8DF8245009A920208DF8267019
:10A90000ADF82830FFF742FC00287FF4BEAE099076
:10A91000CDE90A0094F81237049A8DF8245009A959
:10A9200022208DF82630FFF731FC00287FF4ADAEF1
:10A93000CDE9090094F813370B90049A8DF8245050
:10A9400009A921208DF82630FFF720FC00283FF4CC
:10A95000FEAE9AE604F11000FDF70CFB72E700BFB3
:10A96000C45804009DA10200007002400060002055
:10A97000AC580400BC5804003DA20200C0580400BA
:10A98000A9A1020000E100E0A1A1020000B5084B6E
:10A9900085B01B7D019108468DF80C3018F0F1FE52
:10A9A000019982B203A8FFF7EBFB05B05DF804FB49
:10A9B000C458040000B583B008460DF10601ADF897
:10A9C0000620FFF7DFFB20B99DF8060003B05DF815
:10A9D00004FB002003B05DF804FB00BF70B4234B00
:10A9E0000E4605460FCB85B06C4607C49DF9002086
:10A9F0002380B24234D09DF90130B34230D09DF96A
:10AA00000230B3422CD09DF90330B34228D09DF9D7
:10AA10000430B34224D09DF90530B34220D0FEB1BA
:10AA20009DF90730B3421BD09DF90830B34217D0CF
:10AA30009DF90930B34213D09DF90A30B3420FD0CB
:10AA40009DF90B30B3420BD09DF90C30B34207D0C7
:10AA50009DF90D30B34203D0002005B070BC7047A3
:10AA6000012085F81E6705B070BC7047DC580400F3
:10AA700090F91E07704700BF80F83017704700BF7D
:10AA800070B5044682B0D0F82C070D4610F0C8FD12
:10AA90004FF47A7206460023A90DA80217F0F0FCC5
:10AAA000002302460421D4F82C07009310F08CFDFB
:10AAB0000EB102B070BD0096D4F82C073346324672
:10AAC000032110F081FD02B070BD00BF132906D82C
:10AAD00000EB8101D1F8340708B1FDF7FFBF00207A
:10AAE000704700BFB0F83207704700BF01290CBFA4
:10AAF000B0F80E07B0F81407704700BF13299ABFCB
:10AB000000EB8101D1F834070020704710B5064CE6
:10AB10000021D4F828070FF051F8D4F824070021B9
:10AB2000BDE810400FF04AB8E483012090F83037B8
:10AB300003B9704710B582B0D0F82C470FF0D4FE9F
:10AB40000023024600932046012110F03DFD02B093
:10AB500010BD00BFF0B583B0002405462346D0F8F1
:10AB60002C0700942246032110F02EFD05F5E66621
:10AB700005F5F06756F8040F20B1FDF7AFFF08B1F7
:10AB80000134E4B2BE42F5D195F8303743B1211E0D
:10AB900018BF01210C2003B0BDE8F04012F0E0BA6C
:10ABA00003B0F0BD0148FFF7D3BC00BFE483012030
:10ABB0000020704708B51830FDF7DAFD003818BFDF
:10ABC000012008BD30B585B0044641F60F01684646
:10ABD000FFF746FA69462046FFF710FA2546684611
:10ABE000FFF72CFA084B45F8183B684642F6192146
:10ABF000FFF736FA69462846FDF72AFD6846FFF753
:10AC00001DFA204605B030BDF458040030B583B0BD
:10AC10000446FFF7D7F908B103B030BD054612214D
:10AC200004F118000190FDF759FD01982A46112101
:10AC3000FDF76CFD01980121FDF756FD019803B069
:10AC4000BDE83040FDF720BAC16180F83D20704773
:10AC5000016380F84220704770B584B0044641F625
:10AC60000A016846FFF7FCF969462046FFF7C6F976
:10AC70006846FFF7E3F920460E4B40F8183B2422C4
:10AC8000002117F0A3FE0C4E0C480D4AE062002391
:10AC90002364E36384F844300D2506211323204602
:10ACA000E66184F83D5084F84110226384F8423014
:10ACB00004B070BD24590400AC58040000590400CD
:10ACC000085904002DE9F0479AB00646FFF77AF9D3
:10ACD0008046002846D1336A002B4ED0736A002B81
:10ACE00056D0C6F5275909F1270906F1140406F1D3
:10ACF000380706F13C0554F8043F04A873B3FDF788
:10AD000077FC2268B36B09EB05019A4289B2684669
:10AD100008BF42F65021FFF7A3F9694604A8FDF7E2
:10AD2000CDFC6846FFF78AF904A8FDF7D3FC0221A1
:10AD300004A8FDF7D3FC297804A8FDF7D5FC04A8E6
:10AD4000FDF7A2F9824604A8BAF1000F0ED12A78C5
:10AD50002168FDF7F1FC04A8FDF77CF9BC4205F180
:10AD60000105C8D140461AB0BDE8F087FDF772F979
:10AD7000D04640461AB0BDE8F08711F0F5FF044612
:10AD800018F0FFFC736A346286F83E00002BA8D1ED
:10AD900011F0AAFF044618F0F4FC746286F83F0034
:10ADA0009FE700BFD0F8D830988980B2704700BFC5
:10ADB00070B582B0064608461C460192FDF788FC35
:10ADC000019905462246D0F8D80011F0E7FE8442EA
:10ADD00006D9D5F8F0301BB1211A89B23046984710
:10ADE000D5F8E83023B1304602B0BDE870401847CE
:10ADF00002B070BD08B592B2D0F8D80011F01CFFB7
:10AE000008BD00BF00B583B0D0F8D8000DF107022F
:10AE1000002111F04DFF20B19DF8070003B05DF84F
:10AE200004FB4FF0FF30F9E7D0F8D80011F0A4BED2
:10AE3000D0F8C030988980B2704700BFD0F8C00009
:10AE400011F09ABE10B501680C4A8C69944282B028
:10AE50000BD1D0F8D80001220DF1070111F0ECFE62
:10AE600040B19DF8070002B010BD01220DF10701AD
:10AE7000A047F5E74FF0FF30F5E700BFF5AD020062
:10AE800000B583B0D0F8C0000DF10702002111F029
:10AE90000FFF20B19DF8070003B05DF804FB4FF0F1
:10AEA000FF30F9E710B550F8181C0D4A8C69944230
:10AEB00082B00CD0183801220DF10701A04718B15B
:10AEC0009DF8070002B010BD4FF0FF30FAE70122F5
:10AED0000DF10701D0F8C00011F0AEFEEFE700BFA2
:10AEE000F5AD02002DE9F04F50F8183C83B0044650
:10AEF0003F48D3F828800F461646FFF7F3FD3D4B39
:10AF00009845054609D0A4F1180033463A4629462B
:10AF1000C44603B0BDE8F04F604701463448FFF730
:10AF2000EDFD8346002850D004F11009484629461B
:10AF3000FDF73EFC002848D094F8CC30002B3CD0E4
:10AF4000D4F8C800C8B31FFA86FA5246394611F041
:10AF500025FED4F8C8309B89804658461FFA83FBEB
:10AF6000FDF7C8FD0338834525DB21482946FFF757
:10AF7000C5FD50B3FDF7BEFD033882B21046019205
:10AF80000EF08AFA834600B3019AD4F8C8005946F5
:10AF900011F052FE0346F0B958460EF097FA4645B6
:10AFA00009D9AAEB08039BB207EB080229464846D9
:10AFB000FDF72EFC58B1B04609E03A46294648460E
:10AFC000B3B2FDF725FC0028F5D14FF0000840464C
:10AFD00003B0BDE8F08F5A4629464846FDF718FCF5
:10AFE000044658460EF072FA002CD8D1EDE700BFA7
:10AFF000E483012015B402002DE9F04150F8183C1B
:10B0000084B004463B489E6A8DF80F10FFF76AFD36
:10B01000394B9E42054609D0A4F118002946012368
:10B020000DF10F02B04704B0BDE8F0810146314890
:10B03000FFF764FD064650B304F110073846294671
:10B04000FDF7B6FB18B394F8CC30002B49D0D4F8F8
:10B05000C800002845D00DF10F01012211F09EFD1E
:10B06000D4F8C8309B89804630469EB2FDF742FD39
:10B07000033886420DDA0120D5E7324629463846A4
:10B08000FDF7C6FB044630460EF020FAF4B9002066
:10B09000C9E718482946FFF731FD0028F7D0FDF72A
:10B0A00029FDC21E92B2104601920EF0F5F9064635
:10B0B0000028ECD0019AD4F8C800314611F0BCFD4C
:10B0C00003460028D9D130460EF000FAB8F1000F3F
:10B0D000D1D10DF10F02294638460123FDF798FB27
:10B0E000A1E72946384601230DF10F02FDF790FB39
:10B0F00099E700BFE483012015B402002DE9F04177
:10B1000005683B4BAD6A82B09D428DF8072065D142
:10B11000044638480E46FFF7F1FC054600284FD09C
:10B1200004F1280738463146FDF742FB002847D096
:10B1300094F8E430002B47D0D4F8E000002843D046
:10B140000DF10701012211F029FDD4F8E0309B89AF
:10B15000804628469DB2FDF7CDFCC31E9D4244DBD0
:10B1600024483146FFF7CAFC50B3FDF7C3FC03384F
:10B1700082B2104600920EF08FF9054600B3009A95
:10B18000D4F8E000294611F057FD68B928460EF0C2
:10B190009DF9B8F1000F28D10DF10702314638466C
:10B1A0000123FDF735FB0CE003462A4631463846BD
:10B1B000FDF72EFB044628460EF088F9002CE8D156
:10B1C000002002B0BDE8F0813146384601230DF180
:10B1D0000702FDF71DFB02B0BDE8F08101230DF170
:10B1E0000702A84702B0BDE8F0810120E9E700BFEF
:10B1F00015B40200E48301202DE9F04F036883B009
:10B20000044641489E6A88461746FFF76BFC3F4B51
:10B210009E42054661D101463B48FFF76FFC06465A
:10B22000002855D004F1280948462946FDF7C0FA00
:10B2300000284DD094F8E430002B41D0D4F8E00041
:10B2400000283DD01FFA87FA5246414611F0A6FC6D
:10B25000D4F8E02003463046B2F80CB01E46FDF7A5
:10B2600049FC1FFA8BFB0338834524DB264829461B
:10B27000FFF744FC60B3FDF73DFC033882B2104693
:10B2800001920EF009F9834610B3019AD4F8E00058
:10B29000594611F0D1FC48BB58460EF017F9B74299
:10B2A00009D9AAEB06039BB208EB060229464846D9
:10B2B000FDF7AEFA68B13E46304603B0BDE8F08F08
:10B2C000424629464846BBB2FDF7A2FA0028F2D111
:10B2D0000026304603B0BDE8F08F01463B464246AB
:10B2E0002046B44603B0BDE8F04F604703465A46D7
:10B2F00029464846FDF78CFA044658460EF0E6F813
:10B30000002CCCD1E4E700BFE483012015B4020097
:10B310002DE9F041036882B004463C489E6A8DF8EE
:10B320000710FFF7DFFB3A4B9E420546014663D10B
:10B330003648FFF7E3FB064600284FD004F1280704
:10B3400038462946FDF734FA002847D094F8E4300F
:10B35000002B47D0D4F8E000002843D00DF10701BE
:10B36000012211F01BFCD4F8E0309B898046304666
:10B370009EB2FDF7BFFBC31E9E4245DB2348294614
:10B38000FFF7BCFB50B3FDF7B5FB033882B21046A4
:10B3900000920EF081F8064600B3009AD4F8E0005F
:10B3A000314611F049FC68B930460EF08FF8B8F11B
:10B3B000000F29D10DF10702294638460123FDF778
:10B3C00027FA0CE00346324629463846FDF720FAB4
:10B3D000044630460EF07AF8002CE8D1002002B086
:10B3E000BDE8F0812946384601230DF10702FDF73B
:10B3F0000FFA02B0BDE8F081204601230DF10702EB
:10B40000B04702B0BDE8F0810120E8E7E483012005
:10B4100015B402002DE9F04F044683B03848904639
:10B420001F460E46FFF76AFB002856D004F1280994
:10B43000054631464846FDF7BBF900284DD094F843
:10B44000E430002B41D0D4F8E00000283DD01FFAB2
:10B4500087FA5246414611F0A1FBD4F8E02003469A
:10B460002846B2F80CB01D46FDF744FB1FFA8BFBD3
:10B470000338834524DB22483146FFF73FFB60B3A6
:10B48000FDF738FB033882B2104601920EF004F843
:10B49000834610B3019AD4F8E000594611F0CCFB72
:10B4A00000BB58460EF012F8BD4209D2AAEB0503C4
:10B4B0009BB208EB050231464846FDF7A9F968B191
:10B4C0003D46284603B0BDE8F08F42463146484627
:10B4D000BBB2FDF79DF90028F2D10025284603B044
:10B4E000BDE8F08F03465A4631464846FDF790F9CD
:10B4F000044658460DF0EAFF002CD5D1EDE700BF19
:10B50000E483012070B584B004460E4668461E49A7
:10B51000FEF7B4FD69462046FEF770FD6846FEF76B
:10B520008DFD1A4B1A4903F10802002548334FF4E8
:10B530007A70C4E90635226020626846FEF79EFDF7
:10B54000694604F12800FDF783F86846FEF776FDAA
:10B5500010496846FEF792FD694604F18000FDF748
:10B5600077F86846FEF76AFD2046C4E93A55C4F804
:10B57000D850A4F8DC60C4F8F050C4F8E05084F867
:10B58000E45004B070BD00BF58590400685904006D
:10B59000485904003859040010B50D4B0446D0F842
:10B5A000E00023604033A36110B103685B689847F3
:10B5B00004F18000FCF74EFD04F12800FCF74AFD81
:10B5C0002046044B40F8083BFEF738FD204610BDEE
:10B5D000705904005058040010B50F4B0446D0F8C1
:10B5E000E00023604033A36110B103685B689847B3
:10B5F00004F18000FCF72EFD04F12800FCF72AFD81
:10B600002046064B40F8083BFEF718FD204610F098
:10B61000A3FA204610BD00BF705904005058040022
:10B6200070B5044682B0182010F094FA0022054646
:10B63000012111F081FA2846B4F8DC10C4F8D85082
:10B6400011F08CFA2046FEF7BDFC054610B12846E5
:10B6500002B070BD01211E48FFF748FA04F1280628
:10B6600003461021304601961E46FDF737F82A465C
:10B6700001981121FDF74AF801983146FDF732F89B
:10B6800001981449FDF750F80198FCF7FDFC0546B8
:10B690000028DCD104F180000C210190FDF71EF898
:10B6A00001980D490122FDF737F81122019829462A
:10B6B000FDF72CF801983146FDF714F80198074979
:10B6C000FDF732F8019802B0BDE87040FCF7DCBC31
:10B6D000E483012030590400B1AD02003459040064
:10B6E000002201214270C0E901220170C2818281E1
:10B6F000704700BF10B50446017001B110BD0A20AB
:10B700000DF08EFF606010BD037810B5044643B1A4
:10B71000002301226370C4E90133E381A381227015
:10B7200010BD40680EF052FDF2E700BF00238160BB
:10B730008281C381704700BF037870B504460D460F
:10B74000B3B94668012363704FF47A720023A802EC
:10B75000A90D16F095FE014630460EF0BBFB98B9D8
:10B76000237800264FF0FF356670A3B9284670BDD8
:10B770000322002101200DF011FF06466060002821
:10B78000E0D14FF0FF35F1E7E58923780026ADB22F
:10B790006670002BEAD060680EF018FD66602846DF
:10B7A00070BD00BF4078704738B50446808982423A
:10B7B00028BF0246154619B1A06817F0DFF8A08926
:10B7C000E389A26815FA83F3401B9BB22A44A08147
:10B7D000E381A260284638BD406820B100231A46A4
:10B7E00019460DF04FBF7047B1DF7047B2DF7047A9
:10B7F00008B50F480DF0D6FB0E490D4807F0B6FE10
:10B8000028B10D490A4807F0B1FE50B108BD0949F9
:10B81000074807F0C7FE0849054807F0A7FE0028BB
:10B82000F4D1BDE808400449014807F0BBBE00BFA1
:10B830004C9A0120CC590400E059040070B586B040
:10B840000E4603230021054614460093044A04963D
:10B85000084603AB0395059411F0E0F806B070BDFF
:10B8600029BB020070B586B00323144606460D4678
:10B870000093104603AB044A05940721CDE9036504
:10B8800011F0CCF806B070BD59BC020030B50A46C4
:10B8900091B089795379039111790293D378094D45
:10B8A000094C019100939378527801280CBF2946E6
:10B8B000214604A817F010FF04A9044807F0CAFEA7
:10B8C00011B030BDF4590400245A04004C9A0120F0
:10B8D0002DE9F043D1B00B78032B04AF0D4604469D
:10B8E000904668D95A08022A5ED14F4A4F49504BB8
:10B8F000DFF84891012818BF11460022381D08F0D2
:10B9000081F84B4907F1680007F0B2FF07F1CC0658
:10B9100011E00246414607F1680008F09BF808F183
:10B92000380229464846FDF72BFF044678BB07F14D
:10B93000680008F005F90022391D304608F032F998
:10B9400007F1D0000DC8D7F8DC10D7F8E4407B67CA
:10B95000D7F8E83097F8E0C0F8663A67B96741224F
:10B9600007F1EC0107F18800C7E9204387F87CC0A4
:10B9700017F004F807F1680008F00EF9044607F123
:10B98000680044B107F014FF5028D0D1C1E707F197
:10B99000680008F0D5F8381D08F0D2F8204607F501
:10B9A0009A77BD46BDE8F0830024204607F59A77D4
:10B9B000BD46BDE8F083E9468CB08979AB786A78FA
:10B9C000039169790291297901911A4E1A49E8780F
:10B9D000009004AD012C08BF3146284607F1CC0683
:10B9E00017F07AFE1249304607F042FF29463046EA
:10B9F000002207F0EBFF044650B90024304608F05F
:10BA00009FF82046CD4607F59A77BD46BDE8F083FE
:10BA1000304607F0CDFE021EEFDD92B241463046C1
:10BA200008F018F8EAE700BFE0590400CC59040018
:10BA30004C9A0120F4590400245A04000484012083
:10BA4000F0B5ADB095799378344E1446527803959D
:10BA50006579029594F804C0CDF804C0304DE478BF
:10BA6000009404AF0C4601280CBF3146294607F16B
:10BA70000C0017F031FE2B4B07F10C0107F13C00D5
:10BA8000002207F0BFFF07F13C0008F085F840B93D
:10BA9000002407F13C0008F053F82046A437BD46C7
:10BAA000F0BD07F13C0007F083FE051E08DD07F13D
:10BAB0003C0008F00DF8291807F13C0007F0EAFFF8
:10BAC00007F13C0007F074FE051E08DD07F13C009D
:10BAD00007F0FEFF291807F13C0007F0DBFF07F134
:10BAE0003C0007F065FE0028D2DDC31D23F00703EC
:10BAF0006D46ADEB030D82B204A907F13C00C7E926
:10BB0000001207F0A7FF2046D7E900120323FFF732
:10BB10006BFEB0FA80F46409AD46BAE7F45904004C
:10BB2000245A04004C9A0120F0B5B5B092F84E505A
:10BB300092F84A30434E144692F84920039594F8FF
:10BB40004D50029594F84C50019594F84B50009547
:10BB50000D463D4904AF012818BF314607F12C00BE
:10BB600017F0BAFD394807F12C0107F0FFFC6E46CB
:10BB700000284AD1354B07F12C0107F15C00012266
:10BB800007F040FF07F15C0008F006F818B9C43769
:10BB9000B546BD46F0BD502107F15C0007F036FE0A
:10BBA0005022214607F15C0007F06EFD0023294674
:10BBB00027487B61C7E90333C7E90633C7E9083380
:10BBC000BB62FEF79BFF07F10C012022FDF7CCF8CA
:10BBD0003B7B03B307F10C0017F0D3FD013082B2B9
:10BBE000C1B207F15C007A6007F010FE7A6807F1D5
:10BBF0000C0107F15C0007F047FD07F15C0007F05E
:10BC00009FFFC437B546BD46F0BD07F12C010F4874
:10BC100007F020FDAEE794F8491094F84D3094F801
:10BC20004E20039194F84A10029194F84B10019120
:10BC300094F84C10009107F10C00064917F04CFDE8
:10BC4000C8E700BF245A0400F45904004C9A0120AC
:10BC5000E4830120545A04002DE9F043ADB00C46B2
:10BC600004AF0021032306461546204607F10A02C9
:10BC70007981FFF7BBFD7B89E84623B9A437C54628
:10BC8000BD46BDE8F0830733DB08A8EBC3039D4640
:10BC90000DF11009204607F10A0249460323FFF778
:10BCA000A5FD04460028E9D1A979AB786A7803910B
:10BCB00069790291297901913D483E49ED780095D5
:10BCC000012E08BF014607F10C0017F005FD3A4BA5
:10BCD00007F10C0107F13C00012207F093FE07F188
:10BCE0003C0007F059FF0028C8D0214607F13C006E
:10BCF00007F0D0FE07F13C0007F05AFD041E08DDF6
:10BD000007F13C0007F0E4FE211807F13C0007F0C2
:10BD1000C1FE07F13C0007F04BFD041E08DD07F1F2
:10BD20003C0007F0D5FE211807F13C0007F0B2FEF9
:10BD300007F13C0007F03CFD7C8980B2A04213D0A3
:10BD4000E1B207F13C0007F061FD2246494607F1E8
:10BD50003C0007F099FC07F13C0007F0F1FEA43726
:10BD6000C546BD46BDE8F083E31D6D46DB08A5EB87
:10BD7000C3039D4604A9224607F13C00796007F001
:10BD800069FE79687A89484616F0EAFD08B9AD4639
:10BD9000E1E707F13C0007F0B7FE7B89DB431918A8
:10BDA00007F13C0007F076FEAD467C89C8E700BF8E
:10BDB000F4590400245A04004C9A012038B590F834
:10BDC000E8500DB1284638BD012380F8E83004461C
:10BDD00012F0A0FF0028F5D12046BDE8384000F061
:10BDE000ADB800BF10B5044C204600F0A3F8002306
:10BDF00084F8E83010BD00BF708B012003680A682A
:10BE00009A4201D00020704770B5044684B04FF4C8
:10BE100053700D460DF040FB0646B0B10C4800F0E3
:10BE2000ABF823460435002153F8042B0095CDE9E7
:10BE30000161084912F008FE044630460DF046FB49
:10BE4000B4FA84F0400904B070BD002004B070BDA5
:10BE5000708B012025D80300F0B585B006464FF45D
:10BE600053700D46174603930DF016FB78B1044648
:10BE700000903A46281D311D03AB12F063FE0546C3
:10BE800020460DF023FB15B9039805B0F0BD002046
:10BE900005B0F0BD00220260704700BF10B5044637
:10BEA000084612F0C1FE2060003818BF012010BD06
:10BEB00000220260704700BF10B50446084612F029
:10BEC000B3FE2060003818BF012010BD00230360BE
:10BED000704700BF00B583B00430019201AB0A4641
:10BEE000042112F02BFD18B9019803B05DF804FB92
:10BEF000002003B05DF804FBF0B5044683B04FF4B6
:10BF000063700E4617460DF0C7FA054678B10190EA
:10BF100054F8040B00943A463146012312F04AFCCF
:10BF2000044628460DF0D2FAB4FA84F0400903B072
:10BF3000F0BD00BF002280F8E420704770B590F893
:10BF4000E4400CB1204670BD012380F8E430054682
:10BF50004FF4BF500DF0A0FA06460028F2D031464B
:10BF6000284611F04BFE0446B4FA84F430466409C6
:10BF70000DF0ACFA204670BD704700BF0146014885
:10BF800000F05CBA7C8C012038B500F097F940B124
:10BF9000002405462046013400F046FEE0B285420A
:10BFA000F9D838BD70B592B01D460C46164601A8AA
:10BFB0004222002116F00AFD412D5CD9631C0222A9
:10BFC000DBB28DF806408DF80E408DF8264040F625
:10BFD000083540F202248DF81E308DF827308DF898
:10BFE0003130ADF804508DF807208DF812208DF80F
:10BFF00033208DF83B20ADF80840204A069240F2ED
:10C00000012505232424ADF810508DF815308DF846
:10C01000164004231A4C8DF81F30012540F224628B
:10C020008DF81C508DF830300894ADF82420154D53
:10C030000A9508234FF411640A228DF82C30ADF8CC
:10C040002E4040238DF834200F4C8DF83C3001A950
:10C05000304640F2075540F209464222ADF80C60E6
:10C06000ADF838508DF84330CDF83F4016F086FCDF
:10C07000422012B070BD002012B070BD2001052416
:10C08000240202050705800307058002007EFF28C1
:10C090000AD010B500F076FD044608B1204610BD68
:10C0A00010F0DCFB204610BD00207047007EFF280A
:10C0B0000ED000B583B00DF1070100F0ABFD20B14B
:10C0C0009DF8070003B05DF804FB4FF0FF30F9E77F
:10C0D0004FF0FF30704700BF007EFF280FD000B543
:10C0E00083B001220DF1070100F058FD20B19DF849
:10C0F000070003B05DF804FB4FF0FF30F9E74FF0A5
:10C10000FF307047007EFF2801D000F08DBD7047E2
:10C11000007EFF2801D000F0E7BD0020704700BF7F
:10C12000F8B50646007EFF281CD017465AB10D46CA
:10C13000144600F001FD2946224680B1307E00F011
:10C14000B7FD241A01D13846F8BD054410F086FB2E
:10C15000307E00F0F1FC294622460028EED13F1B3C
:10C160003846F1E70020F8BD70B50368184A5B68EF
:10C1700082B093428DF8071021D10546007EFF283A
:10C1800023D000F0D9FC0DF10706012431462246E8
:10C1900088B1287E00F08CFD241A02D1012002B063
:10C1A00070BD064410F05AFB287E00F0C5FC3146F5
:10C1B00022460028EDD1C4F1010002B070BD012279
:10C1C0000DF10701984702B070BD002002B070BDAC
:10C1D00021C1020070B592B01D460C46164601A85A
:10C1E0004222002116F0F2FB412D5CD9631C022291
:10C1F000DBB28DF806408DF80E408DF8264040F6F3
:10C20000083540F202248DF81E308DF827308DF865
:10C210003130ADF804508DF807208DF812208DF8DC
:10C2200033208DF83B20ADF80840204A069240F2BA
:10C23000012505232424ADF810508DF815308DF814
:10C24000164004231A4C8DF81F30012540F2246259
:10C250008DF81C508DF830300894ADF82420154D21
:10C260000A9508234FF411640A228DF82C30ADF89A
:10C270002E4040238DF834200F4C8DF83C3001A91E
:10C28000304640F2075540F209464222ADF80C60B4
:10C29000ADF838508DF84330CDF83F4016F06EFBC6
:10C2A000422012B070BD002012B070BD20010524E4
:10C2B000240202050705800307058002014B187858
:10C2C000704700BF788C0120037EFF2B02D1074B03
:10C2D0001A7802B17047064902764161012200F1E5
:10C2E000100104481A7000F049B800BF788C012092
:10C2F000745A04007C8C0120007EFF280ED000B50B
:10C3000083B000F019FC10B103B05DF804FB01909C
:10C3100010F0A4FA019803B05DF804FB0020704708
:10C3200001B900B1704700B583B0694600F01AFC4E
:10C33000009BB3F5966F02D003B05DF804FB00F0EC
:10C34000A7FBF9E730B4084B084AFF2002F10805C3
:10C350004FF47A740021303218761D609C601A61A7
:10C3600030BC5960596170475C8C0120845A0400CC
:10C3700002F0D2B902F0E0B902F0EAB9F8B5054628
:10C38000B0F818016C69B5F81A310A680E46044411
:10C390001B1A176895F81C119BB222463046B84705
:10C3A00050B3221894423CD2766806E0052B25D083
:10C3B00023780BB31C44A24233D96378042BF5D104
:10C3C000E378002BF4D195F81C11013185F81C118C
:10C3D000002EEDD095F840110729E9D801F1480762
:10C3E00045F82760217295F84011013185F8401118
:10C3F0001E462378002BDDD10020F8BD94F90230D1
:10C40000002B08DB95F81E31591C85F81E11A17808
:10C410000B43A370CCE795F81D31591C85F81D110D
:10C42000F5E7B5F818216B69104480B2A5F818013A
:10C43000588095F81C211A710120F8BD2DE9F043B0
:10C44000284DDFF8B090AC4604468846BCE80F00A3
:10C4500089B003AF0FC703AE0FCE05F1140E25460A
:10C460000FC59EE80700DCF800303B806B4636685D
:10C470002E8003C36B4603CB1B4EA06104F118034F
:10C480004FF4807C0125E16184F82020636140F253
:10C49000EF2200231548C4F8189140F209470421FF
:10C4A000A4F81CC1C4F8280184F84011A280C4F883
:10C4B0002C31C4F83031C4F83431C4F83831C4F800
:10C4C0003C314FF4E131C4E94876094884F81E5103
:10C4D000A571FFF7F9FE404600F0C8FA284609B0FA
:10C4E000BDE8F083D45A0400B85A0400AC580400E4
:10C4F0005C8C0120090000012DE9F04F04468BB04F
:10C50000002900F09180032900F09C8090F84031D0
:10C510008B4240F2CB80483100F5A27550F8216083
:10C520003278002A00F0E78000231946374603E0FE
:10C530000131725C7718CAB102F14000C0B2012823
:10C54000F6D9F42AF4D8100618D40120A2F55847D9
:10C55000B7F5006FECD30144202B00F0C98025F81B
:10C560001320725C01337718002AE5D1DBB2013366
:10C570005B0043F4407304F5A17C5DE002F0E00051
:10C58000C02800F0A18002F0F000E02800F09180C7
:10C5900002F0F800F028CBD102F007024FF0040EB1
:10C5A000787800F0C00CBCF1800FC1D197F802C0C0
:10C5B0000CF0C00800F03F00B8F1800F40EA821292
:10C5C000B6D10CF03F0CBEF1030F4CEA821275D0CD
:10C5D000F87800F0C007802FAAD100F03F0040EAB1
:10C5E0008212A2F58030B0F5801F38BF4FF0040EE4
:10C5F0009ED2A2F55840B0F5006F99D3B2F5803FB6
:10C600007144A9D31E2BB1DCA2F580325800970AE1
:10C610002844C2F30902A7F52057A2F5105225F8C5
:10C6200013704280023384E7D0F82031A0F84431FF
:10C6300000F5A17C4FF44173A4F8423160460BB081
:10C64000BDE8F08F02A800F025FA04F5A17C019066
:10C6500020B300F1FF3B5FFA8BF3284F04F1040B8A
:10C660000DF1080A0BEB830BA64606AE97E80F0008
:10C670001AF8018B86E80F0008F00F090AADA944EB
:10C6800005EB181819F8109C18F8103CAEF84691F4
:10C69000AEF844310EF1040EDE45E7D1019B5B009C
:10C6A000DBB201335B0043F44073C5E74FF0000C8D
:10C6B000C4E702F00F024FF0030E71E7A2F500602D
:10C6C000B0F5784F95D333E7787800F0C007802F26
:10C6D00002F01F027FF42CAF00F03F0040EA82120C
:10C6E000A2F18000B0F5F06FBFF422AF02202DE779
:10C6F00040F242333FE740F202333CE7C05A0400C5
:10C70000004870477C8C0120014B5869704700BF7E
:10C710007C8C01200A4601460148FFF7EDBE00BFB0
:10C720007C8C0120024B186800B10069704700BF83
:10C73000008E012030B40848BDF80850046844B1A8
:10C74000646934B10846A44611461A462B4630BCEB
:10C750006047002030BC7047008E012030B408488C
:10C76000BDF80850046844B1A46934B10846A44631
:10C7700011461A462B4630BC604730BC704700BF9C
:10C78000008E012070B487B00020162B029000901C
:10C790000390CDF8130022D940F209431546114EFB
:10C7A0008DF802100720052144F20202ADF8003096
:10C7B000402301968DF814306C468DF809008DF8F1
:10C7C0000A10ADF80C200FCCA6882860A479064882
:10C7D00028616960AA60EB60AE82AC75172007B073
:10C7E00070BC7047020806500705800210B5074B61
:10C7F000036000210123044680F850304160482244
:10C80000083016F0E3F8204610BD00BF0C5B0400B2
:10C8100001EBC10100EB810000990162C0E9062330
:10C82000704700BF01EBC10100EB8100426203854C
:10C83000704700BF01EBC10100EB810181F82A20A4
:10C84000704700BF01EBC10100EB8100009901615D
:10C85000C0E90223704700BF10B5014604460348F3
:10C86000FFF78CFD08B1024B1C6010BD7C8C0120D1
:10C87000048E0120024B186808B190F850007047F0
:10C88000048E01202DE9F047244C2568002D42D06C
:10C890001F4600EBC00305EB83030446D3F818A042
:10C8A00089469046C600BAF1000F30D0504616F0C7
:10C8B00068FF0828024628BF0822344405EB840597
:10C8C000D5E90764DFF85CC0154B002E08BF66464B
:10C8D00051464846002C08BF1C4616F04FF830461B
:10C8E00016F04FFF10280246314628BF102240465E
:10C8F00016F044F8204616F044FF0428024621466C
:10C90000384628BF0422BDE8F04716F037B8DFF8F4
:10C9100018A00822D1E7BDE8F08700BF048E0120EF
:10C92000DC570400F45A0400D0570400F8B50B4F4C
:10C930003B688BB100EBC00503EB850504466A69D3
:10C94000C6001AB190473B6885F82A00344403EBCF
:10C95000840393F82A00F8BD1846F8BD048E012020
:10C96000074B1B685BB100EBC00003EB800010B409
:10C97000038D446A0C605DF8044B13807047704768
:10C98000048E01200A781E2A01D10020704710B5BC
:10C9900020221C460521002300F078FF204610BD10
:10C9A00030B4094C029A256855B1044604EBC4041E
:10C9B00005EB840408461946A3680BB130BC184740
:10C9C0004FF0FF3030BC7047048E012030B4094C6A
:10C9D000029A256855B1044604EBC40405EB8404AF
:10C9E00008461946E3680BB130BC18474FF0FF30DA
:10C9F00030BC7047048E0120054B1B6833B100EB3F
:10CA0000C00003EB8000036903B11847704700BF03
:10CA1000048E012000B5104B402283B083F82723F9
:10CA200003F05AFF4FF080430024D3F838548DF8B8
:10CA3000004068460FF0A8F8084B019301A80FF0DA
:10CA4000F3F80FF0FDF8EB0702D401F021FFFCE74B
:10CA5000204603F07DFDF8E700E100E061CA020036
:10CA600003F076BD002003F053BA00BF00B50023E9
:10CA700083B00322CDE9002303490448C8220DF006
:10CA800043FD03B05DF804FB105B040015CA02000F
:10CA900010F0D0B94FF08052536E1BBA0360136E82
:10CAA0001BBA43600820704700487047185B0400B9
:10CAB00070B51F4D2B68B3B199B91478C4F3411404
:10CAC000012C0BD0022C07D15478012C0DD0022C54
:10CAD00007D19388072B21D0084670BD51782229B1
